{"abi":[{"type":"function","name":"verifyProof","inputs":[{"name":"_pA","type":"uint256[2]","internalType":"uint256[2]"},{"name":"_pB","type":"uint256[2][2]","internalType":"uint256[2][2]"},{"name":"_pC","type":"uint256[2]","internalType":"uint256[2]"},{"name":"_pubSignals","type":"uint256[9]","internalType":"uint256[9]"}],"outputs":[{"name":"","type":"bool","internalType":"bool"}],"stateMutability":"view"}],"bytecode":{"object":"0x60808060405234601557610bc7908161001a8239f35b5f80fdfe60806040526004361015610011575f80fd5b5f3560e01c63c542c93b14610024575f80fd5b3461045d576102207ffffffffffffffffffffffffffffffffffffffffffffffffffffffffffffffffc36011261045d5761005d36610461565b3660c41161045d5761006e3661046e565b90366102241161045d576104006040526101043561008b8161047c565b610124356100988161047c565b610144356100a58161047c565b610164356100b28161047c565b610184356100bf8161047c565b6101a435916100cd8361047c565b6101c435936100db8561047c565b6101e435956100e98761047c565b61020435976100f78961047c565b7f2af6f4d52918a6d122cd56826fa79fcefb9d641e5840e551cbafaff7919f77416080527f2b402f2c4cabe2438d97c8d2b72463264ef9be79af297ef9e0a69d7c04d20d1860a052610148906104ad565b61015190610571565b61015a90610635565b610163906106f9565b61016c906107bd565b61017590610881565b61017e90610945565b61018790610a09565b61019090610acd565b803561010052602001357f30644e72e131a029b85045b68181585d97816a916871ca8d3c208c16d87cfd47037f30644e72e131a029b85045b68181585d97816a916871ca8d3c208c16d87cfd4790066101205260443561014052606435610160526084356101805260a4356101a0527f0e161277f861d47a096c3a65584a7a0b5e8d95dc7fa94aa5a310cf927b57cafd6101c0527f1dd153be181f207afe1a5297c10bdbfdd33570d353c4f170564dd614cfec13976101e0527f04a5f5c0e07f6e292ff425ea257dad97b19d0926d5f44d5653a5df8adfff6cca610200527f14dc77eafe8112da71584d224bee1d0087afc10cb3549c54754edf2204e07378610220527f05df9a87d7b353d035719213a1f9394fb8f9a75167a6068f8cdcc424e9e6fa59610240527f012cbb984eb1314c4fdb4db777d6e35a2a6f665d5cb7185212b686584cf2f766610260526080516102805260a0516102a0527f198e9393920d483a7260bfb731fb5d25f1aa493335a9e71297e485b7aef312c26102c0527f1800deef121f1e76426a00665e5c4479674322d4f75edadd46debd5cd992f6ed6102e0527f090689d0585ff075ec9e99ad690c3395bc4b313370b38ef355acdadcd122975b610300527f12c85ea5db8c6deb4aab71808dcb408fe3d1e7690c43d37b4ce6cc0166fa7daa6103205280356103405260200135610360527f12d4e807c43166ba59a6e9433ef1dc562d5c2f17254215d2859db878c270074a610380527f0c2134a7ed8150b036fe13279237c1bf97b08a91b3c5239bb903cf4e3c3c5dd16103a0527f0e9beba35710fe2e7abe0edfe2b865c582f3fff4e9da94abd20aae181226f3306103c0527f10d6769f2d3014d95f033051915da91e23adcfd2c9ba19008703bdf4d6ec54296103e0525a7ffffffffffffffffffffffffffffffffffffffffffffffffffffffffffffff83001610100610300816008602094fa61010051165f5260205ff35b5f80fd5b9060049160441161045d57565b9060c4916101041161045d57565b7f30644e72e131a029b85045b68181585d2833e84879b9709143e1f593f000000111156104a557565b5f805260205ff35b6040517f1dbb541b1886b119f51b93e4c537e273202314e3b00b09956465da802e7e117381527f2af23cc9a61cd36ebc16b50f0b23b2212d2c3a017f3cf265414a647d32541f3a60208201526040810191825260408160608160077ffffffffffffffffffffffffffffffffffffffffffffffffffffffffffffff8305a01fa156104a557608080916040938251905260a051606082015260067ffffffffffffffffffffffffffffffffffffffffffffffffffffffffffffff8305a01fa156104a557565b6040517f1decc536346b4dfd43af2fe58a544134216ba3aa367f0f10e6c560dc39d8fa7581527f2eac80bce1319c4badb508165db8427a32c6d39cf24b5b6de0e364e4ee73a19a60208201526040810191825260408160608160077ffffffffffffffffffffffffffffffffffffffffffffffffffffffffffffff8305a01fa156104a557608080916040938251905260a051606082015260067ffffffffffffffffffffffffffffffffffffffffffffffffffffffffffffff8305a01fa156104a557565b6040517f2a2819592b527141549d21389da6c0fda2e56888b3febae3575514171676952381527f1f152f64e45f729cf662bff0e2e4bca0b56e1b8f364c07c3cc483193ecb809c860208201526040810191825260408160608160077ffffffffffffffffffffffffffffffffffffffffffffffffffffffffffffff8305a01fa156104a557608080916040938251905260a051606082015260067ffffffffffffffffffffffffffffffffffffffffffffffffffffffffffffff8305a01fa156104a557565b6040517f1781f1d0f8209bd2c98f9279a8b51d6cdcb897e1528e1bde100203e03bd86ea281527f138a1a72af886675e6ab67ea23393617e14d7194ca6577b29842056d1f49100860208201526040810191825260408160608160077ffffffffffffffffffffffffffffffffffffffffffffffffffffffffffffff8305a01fa156104a557608080916040938251905260a051606082015260067ffffffffffffffffffffffffffffffffffffffffffffffffffffffffffffff8305a01fa156104a557565b6040517f09c1aa4766acc2532b98605f1798bf470a5c39cc44560acb9b698c5f5d4d7f8a81527f04ac53bf38ecc10ed61423ed625fd82e74a2b7399d30cb9f86db4da26164464760208201526040810191825260408160608160077ffffffffffffffffffffffffffffffffffffffffffffffffffffffffffffff8305a01fa156104a557608080916040938251905260a051606082015260067ffffffffffffffffffffffffffffffffffffffffffffffffffffffffffffff8305a01fa156104a557565b6040517f2cc9f6deb5141cfeed90eddc78e188574d98b097d789ce4becd37d05848ae9d781527f2bb38a188adf5de4b75bd1d5576da086e0274012bebbd8b91813c9def444ee7760208201526040810191825260408160608160077ffffffffffffffffffffffffffffffffffffffffffffffffffffffffffffff8305a01fa156104a557608080916040938251905260a051606082015260067ffffffffffffffffffffffffffffffffffffffffffffffffffffffffffffff8305a01fa156104a557565b6040517f28daf39af9e7578fffa17b9b4d9ef18aa4551baf4b1965a99b7df7110d34beaa81527f2233ef13b1bbfdcbc66593d037131eebc093ce1b14f3184fb99c71ddb478a5d860208201526040810191825260408160608160077ffffffffffffffffffffffffffffffffffffffffffffffffffffffffffffff8305a01fa156104a557608080916040938251905260a051606082015260067ffffffffffffffffffffffffffffffffffffffffffffffffffffffffffffff8305a01fa156104a557565b6040517f2986c488d0b84bbf000758b8baafe3a5f3c35d152456e3a60d4af3d9b26e43f081527f24b3d0ac44df31374353543c744222b7ce88e9a6926bc22944cb0701bffb601260208201526040810191825260408160608160077ffffffffffffffffffffffffffffffffffffffffffffffffffffffffffffff8305a01fa156104a557608080916040938251905260a051606082015260067ffffffffffffffffffffffffffffffffffffffffffffffffffffffffffffff8305a01fa156104a557565b6040517f189f097a49d04f2bb4e508feb6026d488edb45d932450855f9c29eddeaf0557981527f23f4cb5efa7a27b338e2761fdc620cf4f4b7e128dfbd21a3758a0221a529409d60208201526040810191825260408160608160077ffffffffffffffffffffffffffffffffffffffffffffffffffffffffffffff8305a01fa156104a557608080916040938251905260a051606082015260067ffffffffffffffffffffffffffffffffffffffffffffffffffffffffffffff8305a01fa156104a55756fea26469706673582212201b3dd03fa8fb4ef25497b86c8888d9f90c0f11604cf63359692edd94f4f046ed64736f6c634300081e0033","linkReferences":{}},"methodIdentifiers":{"verifyProof(uint256[2],uint256[2][2],uint256[2],uint256[9])":"c542c93b"},"id":0}